:020000040800F2
:1000000000280020951A00080D0200080F020008C1
:100010001102000813020008150200080000000089
:1000200000000000000000000000000017020008AF
:1000300019020008000000001B0200081D02000851
:10004000DD1A0008DD1A0008DD1A0008DD1A0008B4
:10005000DD1A0008DD1A0008DD1A0008DD1A0008A4
:10006000DD1A0008DD1A0008DD1A0008DD1A000894
:10007000DD1A0008DD1A0008DD1A0008DD1A000884
:10008000DD1A0008DD1A0008DD1A0008DD1A000874
:10009000DD1A0008DD1A0008DD1A00082902000830
:1000A000DD1A000839020008DD1A0008DD1A000810
:1000B000DD1A00084D02000800000000DD1A0008EB
:1000C000DD1A00080000000000000000DD1A000832
:1000D00000000000DD1A0008DD1A00080000000022
:1000E00061020008DD1A0008DD1A000800000000A7
:1000F0000000000000000000000000000000000000
:0C01000000000000000000005FF808F1A3
:10010C0010B5054C237833B9044B13B10448AFF345
:10011C0000800123237010BD20000020000000008F
:10012C00381B000808B5034B1BB103490348AFF358
:10013C00008008BD0000000024000020381B0008CF
:10014C0072B6FEE700B591B02822002106A8124B2A
:10015C00984700230193029303930493059302237E
:10016C00069301230A9310230B9306A80B4B984775
:10017C0068B90F2301930021029103910491059119
:10018C0001A8074B984720B911B05DF804FB054B4B
:10019C009847044B984700BF291B00082D0C0008FA
:1001AC00B91000084D01000808B50C4B98470C4BD2
:1001BC0098470C4B98470C4B98470C4B98470C4B5B
:1001CC0098470C4C20460C4B9847002120460B4D71
:1001DC00A84704212046A847FEE700BFAD0B000846
:1001EC00510100086D150008811600080117000860
:1001FC00791800089400002049040008A50900089B
:10020C00FEE7FEE7FEE7FEE7FEE770477047704744
:10021C0008B5014B984708BDDD0B000808B54FF435
:10022C000070014B984708BD7114000808B50248CE
:10023C00024B984708BD00BF4C000020B1040008D9
:10024C0008B50248024B984708BD00BF9400002037
:10025C00B104000810B54FF48060064CA0474FF471
:10026C000060A0474FF48050A0474FF48040A04757
:10027C0010BD00BF7114000808B5B0F5006F26D092
:10028C000BD9B0F5805F27D0B0F5804F0FD14FF46C
:10029C0000411448144B984709E0B0F5007F07D093
:1002AC00B0F5806F03D1114A13680133136008BD98
:1002BC000F4B1B782BB901230E4A13700C4A137089
:1002CC00F5E700230B4A1370094A1370EFE70A4A4B
:1002DC00136801331360EAE74FF400510148024BF5
:1002EC009847E4E7000C01405D1400084000002032
:1002FC003C0000203D0000204400002082B00E4B4A
:10030C009A6942F001029A619A6902F00102009224
:10031C00009ADA6942F08052DA61DB6903F08053AB
:10032C000193019B054A536823F0E06343F080631B
:10033C00536002B0704700BF001002400000014043
:10034C0010B4036A046A24F001040462846924F082
:10035C00F00C4CEA021223F00A030B438261036295
:10036C0010BC704730B4046A24F010040462846931
:10037C00056A24F4407C4CEA022C2CF4704C1B03D0
:10038C009BB243EA0C0325F0A005090101F0A00182
:10039C0029438361016230BC704710B4046A24F0B5
:1003AC00100404628469036A24F4704C4CEA02322F
:1003BC0023F0A00343EA01138261036210BC70476F
:1003CC0030B4046A24F480740462C469056A24F0AD
:1003DC00030C4CEA020C2CF0F00C1B01DBB243EAD0
:1003EC000C0325F40075090201F400712943C36163
:1003FC00016230BC704730B4046A24F48054046247
:10040C00C469056A24F4407C4CEA022C2CF4704C30
:10041C001B039BB243EA0C0325F40055090301F4BA
:10042C0000512943C361016230BC7047836823F0DB
:10043C0070030B4343F007038360704790F83D3023
:10044C00DBB2012B23D1022380F83D300268D36844
:10045C0043F00103D36003680F4A93420CD0B3F10D
:10046C00804F09D0A2F59432934205D01A6842F01D
:10047C0001021A60002070479A6802F00702062AEF
:10048C0007D01A6842F001021A6000207047012060
:10049C0070470020704700BF002C01407047704728
:1004AC007047704710B5044603681A6912F0020FC2
:1004BC0011D0DA6812F0020F0DD06FF002021A613F
:1004CC000123037703689B6913F0030F70D0544B1F
:1004DC0098470023237723681A6912F0040F12D06F
:1004EC00DA6812F0040F0ED06FF004021A610223C6
:1004FC00237723689B6913F4407F5FD02046484BD9
:10050C0098470023237723681A6912F0080F12D03A
:10051C00DA6812F0080F0ED06FF008021A6104238B
:10052C0023772368DB6913F0030F4ED020463C4B36
:10053C0098470023237723681A6912F0100F12D002
:10054C00DA6812F0100F0ED06FF010021A61082347
:10055C0023772368DB6913F4407F3DD02046304B72
:10056C0098470023237723681A6912F0010F03D0F0
:10057C00DA6812F0010F36D123681A6912F0800F75
:10058C0003D0DA6812F0800F34D123681A6912F0A4
:10059C00400F03D0DA6812F0400F32D123681A6989
:1005AC0012F0200F03D0DA6812F0200F30D110BDFA
:1005BC001C4B984720461C4B98478AE72046194B02
:1005CC0098472046184B98479BE72046154B984771
:1005DC002046154B9847ACE72046124B98472046CF
:1005EC00114B9847BDE76FF001021A6120460F4B83
:1005FC009847C1E76FF080021A6120460C4B984770
:10060C00C3E76FF040021A6120460A4B9847C5E7D2
:10061C006FF020021A612046074B9847C7E700BFCE
:10062C00FD190008AB040008AD0400088D18000883
:10063C00570B0008AF040008550B00080368174A55
:10064C00904206D0B0F1804F03D0A2F59432904284
:10065C0003D123F070034A681343104A904206D02A
:10066C00B0F1804F03D0A2F59432904203D123F421
:10067C004073CA68134323F080034A691343036031
:10068C008B68C3620B688362044B984202D00123CF
:10069C00436170470B690363F9E700BF002C01400D
:1006AC0040B310B5044690F83D30F3B1022384F802
:1006BC003D30214651F8040B0F4B9847012384F829
:1006CC00463084F83E3084F83F3084F8403084F86B
:1006DC00413084F8423084F8433084F8443084F854
:1006EC00453084F83D30002010BD80F83C30034B81
:1006FC009847DBE70120704749060008D11700082E
:10070C0040B310B5044690F83D30F3B1022384F8A1
:10071C003D30214651F8040B0F4B9847012384F8C8
:10072C00463084F83E3084F83F3084F8403084F80A
:10073C00413084F8423084F8433084F8443084F8F3
:10074C00453084F83D30002010BD80F83C30034B20
:10075C009847DBE70120704749060008A904000808
:10076C0070B4046A24F0010404628469056A0F4EB3
:10077C00B04209D0B0F1804F06D0A6F59436B04205
:10078C0002D044F0010202E024F00304224322F0E0
:10079C00F0021B01DBB2134325F00A0201F00A013F
:1007AC0011438361016270BC704700BF002C014093
:1007BC0090F83C30012B53D070B504460D46012304
:1007CC0080F83C30C2B1042A27D0082A37D0CB6835
:1007DC004A6809680068234EB0472268D36923F43D
:1007EC004063D3612268D369A96843EA0123D361CA
:1007FC00002084F83C0070BDCB684A68096800682A
:10080C00194EB0472268936923F00C039361226858
:10081C009369A9680B439361EAE7CB684A68096856
:10082C000068124EB0472268936923F440639361C9
:10083C0022689369A96843EA01239361D8E7CB68DE
:10084C004A68096800680A4EB0472268D36923F0E9
:10085C000C03D3612268D369A9680B43D361C7E742
:10086C0002207047030400086D070008710300089C
:10087C00CD03000810B4846824F47F4C42EA0322B0
:10088C000A4342EA0C02826010BC704738B590F8FB
:10089C003C30012B65D00446012380F83C30022308
:1008AC0080F83D300268936823F47F4323F077038C
:1008BC0093600B68602B40D022D8402B47D00BD9CB
:1008CC00502B0ED1CA6849680068274B98475021B5
:1008DC002068264B984704E0202B0CD008D9302BED
:1008EC0009D0012384F83D30002084F83C0038BD49
:1008FC000BB1102BF5D1194620681C4B9847F0E72B
:10090C00702B0ED0B3F5005FEBD1CB684A688968C9
:10091C000068174DA8472268936843F4804393609E
:10092C00DFE7CB684A6889680068114DA8472268E0
:10093C00936843F077039360D3E7CA68496800680B
:10094C000C4B984760212068084B9847C9E7CA6848
:10095C0049680068044B984740212068034B98472E
:10096C00BFE70220C3E700BF4D03000839040008AD
:10097C0081080008A703000801F01F01012303FAF6
:10098C0001FC036A23EA0C030362036A02FA01F115
:10099C000B4303627047000010B504460B4601BBC5
:1009AC0090F83E00C0B263BB94F84220D2B201284A
:1009BC0040F08F80012A40F08D8093BB022284F896
:1009CC003E20002B3DD1022284F842200C2B4DD826
:1009DC00DFE803F0474C4C4C624C4C4C684C4C4C94
:1009EC006E00042905D0082907D090F84100C0B248
:1009FC00D9E790F83F00C0B2D5E790F84000C0B2FC
:100A0C00D1E7042B05D0082B07D094F84520D2B29F
:100A1C00CDE794F84320D2B2C9E794F84420D2B27F
:100A2C00C5E7042B05D0082B07D0022284F84120FF
:100A3C00C7E7022284F83F20C3E7022284F8402053
:100A4C00BFE7042B05D0082B07D0022284F84520E1
:100A5C00BCE7022284F84320B8E7022284F8442041
:100A6C00B4E72168CA6842F00202CA600122194642
:100A7C0020681A4B98472368194A93421ED0B3F149
:100A8C00804F1BD0A2F59432934217D01A6842F0D3
:100A9C0001021A6000201DE02168CA6842F00402BD
:100AAC00CA60E3E72168CA6842F00802CA60DDE761
:100ABC002168CA6842F01002CA60D7E79A6802F04F
:100ACC000702062A07D01A6842F001021A600020B9
:100ADC0000E0012010BD0020FCE700BF85090008E4
:100AEC00002C014090F83C30012B28D010B401238D
:100AFC0080F83C30022380F83D3003685A689C68CB
:100B0C0022F0700C0A6842EA0C025A6003680D4A23
:100B1C00934206D0B3F1804F03D0A2F594329342A6
:100B2C0004D124F080044A6814439C60012380F8AB
:100B3C003D30002380F83C30184610BC7047022032
:100B4C00704700BF002C01407047704710B5044639
:100B5C000E4B18784FF47A73B3FBF0F30C4A106811
:100B6C00B0FBF3F00B4B984768B90F2C01D901205F
:100B7C000AE0002221464FF0FF30074B9847074B05
:100B8C001C60002000E0012010BD00BF0000002010
:100B9C000800002041150008B514000804000020CE
:100BAC0008B5074A136843F0100313600320054B84
:100BBC0098470F20044B9847044B9847002008BDDA
:100BCC000020024091140008590B0008090300088A
:100BDC00034A1168034B1B780B441360704700BF2A
:100BEC004800002000000020014B1868704700BF2F
:100BFC004800002082B0084B1B68084AA2FB032364
:100C0C005B0A00FB03F3019300BF019B5A1E019288
:100C1C00002BF9D102B0704708000020D34D6210B0
:100C2C00002800F0F58170B582B00446036813F01B
:100C3C00010F2CD08F4B5B6803F00C03042B1DD0E1
:100C4C008C4B5B6803F00C03082B12D06368B3F574
:100C5C00803F41D0002B55D103F1804303F5043381
:100C6C001A6822F480321A601A6822F480221A6000
:100C7C0037E0804B5B6813F4803FE7D07D4B1B68FB
:100C8C0013F4003F03D06368002B00F0C38123688A
:100C9C0013F0020F75D0774B5B6813F00C0F5FD01D
:100CAC00744B5B6803F00C03082B54D02369002BA6
:100CBC0000F08A80704B01221A60704B98470546F1
:100CCC006C4B1B6813F0020F75D16C4B9847401B93
:100CDC000228F5D90320A2E1664A136843F4803355
:100CEC001360636843B3654B98470546614B1B68BB
:100CFC0013F4003FCBD1614B9847401B6428F5D9C6
:100D0C0003208CE1B3F5A02F09D05A4B1A6822F4BA
:100D1C0080321A601A6822F480221A60E1E703F12B
:100D2C008043A3F53C331A6842F480221A601A6897
:100D3C0042F480321A60D4E7504B984705464D4B2D
:100D4C001B6813F4003FA2D04C4B9847401B6428FF
:100D5C00F5D9032063E1474B5B6813F4803FA5D1C1
:100D6C00444B1B6813F0020F03D02369012B40F096
:100D7C005381404A136823F0F803616943EAC103C5
:100D8C001360236813F0080F33D0A369002B5CD0D9
:100D9C00394B0122C3F88024384B98470546354B14
:100DAC005B6A13F0020F21D1344B9847401B022889
:100DBC00F5D9032033E12F4A136823F0F803616956
:100DCC0043EAC1031360DCE72B4B00221A602B4B68
:100DDC0098470546274B1B6813F0020FD1D0274BC1
:100DEC009847401B0228F5D9032018E10120244B19
:100DFC009847236813F0040F00F09A801D4BDB69B1
:100E0C0013F0805F34D11B4BDA6942F08052DA6107
:100E1C00DB6903F080530193019B0125194B1B687F
:100E2C0013F4807F30D0E368012B41D0002B57D1D5
:100E3C0003F1804303F504331A6A22F001021A62AB
:100E4C001A6A22F004021A6237E00B4B0022C3F834
:100E5C0080240A4B98470546064B5B6A13F0020F39
:100E6C00C7D0064B9847401B0228F5D90320D6E083
:100E7C000025D3E70010024000004242F50B0008A9
:100E8C00010C000800700040694A136843F4807339
:100E9C001360684B98470646654B1B6813F4807FBC
:100EAC00C1D1644B9847801B6428F5D90320B6E068
:100EBC00614A136A43F001031362E36833B35D4B79
:100ECC00984706465C4B1B6A13F0020F2FD1594B07
:100EDC009847801B41F288339842F3D903209EE057
:100EEC00052B09D0544B1A6A22F001021A621A6AB5
:100EFC0022F004021A62E0E74F4B1A6A42F0040235
:100F0C001A621A6A42F001021A62D6E7494B9847F4
:100F1C000646494B1B6A13F0020F08D0454B984705
:100F2C00801B41F288339842F3D9032077E0E5B96E
:100F3C00E369002B72D0404A526802F00C02082A76
:100F4C0056D0022B17D03D4B00221A66394B9847CE
:100F5C000446394B1B6813F0007F47D0354B98473C
:100F6C00001B0228F5D9032059E0334AD36923F03A
:100F7C008053D361DCE7314B00221A662D4B984726
:100F8C0005462D4B1B6813F0007F06D0294B984764
:100F9C00401B0228F5D9032041E0236AB3F5803FBA
:100FAC001AD025494B6823F47413226A606A0243F1
:100FBC0013434B60214B01221A661E4B9847044683
:100FCC001D4B1B6813F0007F0ED11A4B9847001B6A
:100FDC000228F5D9032022E0174A536823F4003382
:100FEC00A1680B435360DCE7002018E0002016E0FA
:100FFC00012B16D0104B5B6803F48031226A9142AE
:10100C0011D103F47013626A93420ED1002006E0F2
:10101C0001207047012002E0012000E0002002B016
:10102C0070BD0120FBE70120F9E70120F7E700BFC5
:10103C0000700040F50B0008001002400000424216
:10104C0086B0164B0FCB0DF1180C0CE90F0040F2CB
:10105C000123ADF80430124B5B6803F00C02082A34
:10106C0002D0104806B07047C3F38342624412F8B2
:10107C00100C13F4803F0CD0094B5B68C3F3404356
:10108C00634413F8143C074A02FB00F0B0FBF3F086
:10109C00E8E7054B03FB00F0E4E700BF501B00083A
:1010AC000010024000127A0000093D00002800F0F8
:1010BC00A08070B50D460446524B1B6803F0070325
:1010CC008B420BD24F4A136823F007030B43136078
:1010DC00136803F007038B4240F08D80236813F0F4
:1010EC00020F17D013F0040F04D0474A536843F48F
:1010FC00E0635360236813F0080F04D0424A53682E
:10110C0043F460535360404A536823F0F003A168E2
:10111C000B435360236813F0010F31D06368012B2C
:10112C0020D0022B25D0384A126812F0020F64D05E
:10113C0035494A6822F0030213434B60334B9847FE
:10114C000646314B5B6803F00C036268B3EB820F0D
:10115C0016D02E4B9847801B41F288339842F0D919
:10116C00032045E0284A126812F4003FE0D1012028
:10117C003EE0254A126812F0007FD9D1012037E0F9
:10118C00204B1B6803F00703AB420AD91D4A1368B6
:10119C0023F007032B431360136803F00703AB42E0
:1011AC002DD1236813F0040F06D0174A536823F48B
:1011BC00E063E1680B435360236813F0080F07D01A
:1011CC00114A536823F46053216943EAC103536005
:1011DC000F4B98470C4B5B68C3F303130D4AD35C5E
:1011EC00D8400D4B18600D4B18680D4B98470020DC
:1011FC0070BD012070470120FAE70120F8E70120BB
:10120C00F6E700BF0020024000100240F50B00087A
:10121C004D100008641B000808000020040000208A
:10122C00590B000870B582B00024A4468BE07F4DAA
:10123C00AA4210D007D97E4DAA420CD005F58035B4
:10124C00AA4208D015E0A5F58015AA4203D005F5F1
:10125C007025AA4209D18A68002A00F0BF80012AB1
:10126C0000F0B7804361082403E0A5F58015AA427D
:10127C00F1D0BEF1FF0F00F2B3800646BEF1FF0FB6
:10128C0000F2B0804FEA8C0233680F25954023EAB8
:10129C00050304FA02F2134333604B6813F0805FCA
:1012AC004FD0644B9A6942F001029A619B6903F03A
:1012BC0001030193019B4FEA9C02951C5E4B53F872
:1012CC0025600CF003039D000F23AB4026EA0306B8
:1012DC005A4B984200F08C8003F58063984200F0E2
:1012EC00898003F58063984200F080800323AB4033
:1012FC0033430232504D45F822304B6813F4803F93
:10130C007AD04F4A136843EA0E0313604B6813F408
:10131C00003F77D04A4A536843EA0E0353604B6848
:10132C0013F4801F74D0464A936843EA0E0393600B
:10133C004B6813F4001F71D0414AD36843EA0E0383
:10134C00D3600CF1010C0A6832FA0CF36CD0012357
:10135C0003FA0CF302EA030E33EA0202F1D14A68F3
:10136C00122A3FF664AF122A83D801A555F822F051
:10137C0063120008C9130008D3130008E513000812
:10138C007F1200087F1200087F1200087F120008ED
:10139C007F1200087F1200087F1200087F120008DD
:1013AC007F1200087F1200087F1200087F120008CD
:1013BC007F120008CD130008D9130008CC6858E739
:1013CC00CC68043455E7CC68083452E7CC680C344C
:1013DC004FE7036108244CE700244AE7042448E75C
:1013EC00061D4BE7ACF1080292004DE702237EE7A5
:1013FC0000237CE701237AE7114A136823EA0E03E2
:10140C00136083E70E4A536823EA0E03536086E7A2
:10141C000B4A936823EA0E03936089E7084AD36862
:10142C0023EA0E03D3608CE702B070BD00002210DB
:10143C000000311000100240000001400008014083
:10144C00000401400AB10161704709040161704751
:10145C00C36801EA030221EA030141EA0241016186
:10146C007047000008B5054B5B69034200D108BD0D
:10147C00024B5861024B9847F9E700BF000401404A
:10148C0085020008074AD36823F4E0631B041B0C95
:10149C00000200F4E060034343F0BF6343F4003305
:1014AC00D360704700ED00E000B5194BDB68C3F367
:1014BC000223C3F1070CBCF1040F28BF4FF0040C3E
:1014CC0003F1040EBEF1060F18D9033B4FF0FF3E9B
:1014DC000EFA0CFC21EA0C0199400EFA03F322EAF5
:1014EC000303194300280BDB0901C9B200F160406A
:1014FC0000F5614080F800135DF804FB0023E5E77C
:10150C0000F00F000901C9B2024B1954F4E700BFF7
:10151C0000ED00E014ED00E0002807DB00F01F02F6
:10152C00400901239340024A42F82030704700BF23
:10153C0000E100E00138B0F1807F0BD24FF0E023E6
:10154C005861054AF02182F8231000209861072287
:10155C001A6170470120704700ED00E070470000F1
:10156C002DE9F04188B00024049405940694079466
:10157C00364B9A6942F010029A619A6902F0100295
:10158C000192019A9A6942F004029A619A6902F0F6
:10159C0004020292029A9A6942F008029A619B69CB
:1015AC0003F008030393039B294D224640F6FF7179
:1015BC002846284FB847284E22464FF42041304643
:1015CC00B84740F6FF7304934FF00108CDF8148030
:1015DC0006940227079704A92846204DA8474FF4E4
:1015EC00984304931E4B0593069404A93046A847D0
:1015FC004FF4805304931B4B0593069404A9304677
:10160C00A8474FF420430493CDF814800694079711
:10161C0004A93046A8474FF400730493124B05936A
:10162C00069404A93046A8472246214617200F4E9F
:10163C00B04717200E4DA847224621462820B04718
:10164C002820A84708B0BDE8F08100BF0010024078
:10165C000010014051140008000C01403112000828
:10166C00000011100000211000003110B51400080A
:10167C002515000800B587B000230293039304934B
:10168C000593009301931548154A026040F2E73226
:10169C00426083604F22C260036143618361114BDE
:1016AC00984790B94FF48053029302A90B480E4B04
:1016BC00984768B9002300930193694607480B4B80
:1016CC00984740B907B05DF804FB094B9847E9E728
:1016DC00074B9847EEE7064B9847F3E74C00002082
:1016EC00002C0140AD06000899080008F10A00081A
:1016FC004D01000800B58BB00023069307930893A7
:10170C000993049305930093019302930393254843
:10171C00254A026041F63F72426083600922C26032
:10172C0003618361214B9847002829D14FF48053E2
:10173C00069306A91B481E4B984720BB19481D4B06
:10174C00984718BB00230493059304A915481A4B1A
:10175C009847F0B900220092012301930292039260
:10176C0069461048154B9847B0B9022300930422E0
:10177C0069460C48114B984788B90BB05DF804FBCF
:10178C000F4B9847D2E70E4B9847D7E70C4B98472F
:10179C00D8E70B4B9847DDE7094B9847E5E7084B33
:1017AC009847EAE79400002000040040AD060008CA
:1017BC00990800080D070008F10A0008BD07000889
:1017CC004D01000800B589B00023049305930693DE
:1017DC00079303681E4A934205D01E4A934215D0C4
:1017EC0009B05DF804FB1C4B9A6942F400629A61E3
:1017FC009B6903F400630193019B0022114619209D
:10180C00164B98471920164B9847E9E7124BDA69A3
:10181C0042F00202DA61DA6902F002020292029AE2
:10182C009A6942F004029A619B6903F004030393E2
:10183C00039BC023049304A90A480B4B984700222E
:10184C0011461D20054B98471D20054B9847C7E7AF
:10185C00002C01400004004000100240B5140008A8
:10186C0025150008000801403112000808B502488F
:10187C00024B984708BD00BF4C00002049040008EB
:10188C0003684D4A934204D04C4A934200F08F8037
:10189C00704710B44A4A136801331360642B47D065
:1018AC00484B1B68002B65D1464B63221A60464B94
:1018BC001B78002B62D1454B1868454BA3FB0012DB
:1018CC00D20844498A7002EB8202A0EB4202CA7031
:1018DC00414A1268A3FB0203DB080B7003EB830382
:1018EC00A2EB43034B703D490B7801335A4203F092
:1018FC00030302F0030258BF5342DBB20B70384AA9
:10190C00D16821F47061D160D16821F0FF01D16000
:10191C00D1683048C05C334C205C0143D160D16845
:10192C000833012000FA03F30B43D36010BC70475B
:10193C00134600221A60254B1B686BB9234B3B22C4
:10194C001A60254B1B681BB9234B0A221A6006E050
:10195C00013B214A136002E0013B1C4A1360224BFD
:10196C001B681BB9204B18221A6099E7013B1E4AD1
:10197C00136095E7013B134A136098E7114B186805
:10198C00134BA3FB0012D20812498A7002EB82029D
:10199C00A0EB4202CA70144A1268A3FB0203DB08D4
:1019AC000B7003EB8303A2EB43034B709BE70F4AD3
:1019BC001368013313607047002C01400004004091
:1019CC00DC000020E80000203D000020EC0000209E
:1019DC00CDCCCCCCF800002010000020E000002082
:1019EC0000100140140000200C000020E400002036
:1019FC0002681C4B9A4200D07047037F012B27D002
:101A0C00022BF9D1174B9B6B9BB2174A138013888F
:101A1C009BB2164A126802EB820203EB4203144A91
:101A2C00128892B29B1A134A13601368B3F5FA6FBB
:101A3C000AD3114B0A221A600023104A1360104A71
:101A4C001360104B18221A60084B00221A60D3E75F
:101A5C00044A526B92B206490A80044A0021116072
:101A6C00CEE700BF00040040E2000020E4000020AC
:101A7C00F0000020F400002010000020EC000020FA
:101A8C00E80000200C0000200C480D490D4A0023F2
:101A9C0002E0D458C4500433C4188C42F9D30A4A17
:101AAC000A4C002301E013600432A242FBD3FFF77F
:101ABC0055FD00F00FF8FEF777FB70470000002093
:101ACC00200000207C1B000820000020FC000020CF
:101ADC00FEE7000070B500260C4D0D4C641BA410E5
:101AEC00A64209D100F022F800260A4D0A4C641BCC
:101AFC00A410A64205D170BD55F8043B9847013699
:101B0C00EEE755F8043B98470136F2E7741B0008E2
:101B1C00741B0008741B0008781B00080346024461
:101B2C00934200D1704703F8011BF9E7F8B500BFE9
:101B3C00F8BC08BC9E467047F8B500BFF8BC08BCA2
:041B4C009E467047FA
:101B500002030405060708090A0B0C0D0E0F1010EE
:101B6000000000000000000000000000010203046B
:041B70000607080953
:041B74003101000833
:041B78000D01000853
:101B7C0001000000100000000024F4001800000018
:101B8C000A00000081CF9286CCA4A08F8084000034
:0400000508001A9540
:00000001FF
